:020000040009F1
:280000000108006999994204204EB1FD0400FFFFFFFF4006000000A0027020020A00280009000000000000001D
:FB002800411A0042726F6164636F6D20426C7565746F6F74682044657669636500980100035C0100017206000300000800017A020000089304002000000068040012000C006A3600030112000000B2000000A2000000420000005200000080000000900000006200000072000000C1000000D00000002200000032000000690200F5005D0C000A64E6B000008898425A33435F09003C280100040004F70C0A6F0098160800C600F3025D0066033000C900E10268005C033600C300E2026A0053033C00C200E1026C004E034100C500D60272004A034300C300CE02790042034800C500C00283003A034E00C800BF0282003B034E00C900BC02840037035200CA
:FB0123000808070707070707060606060505050502C0E40094FC0E00FFFF00005E02000030FC0E00FFFF0F006304000000FD0E00FFFF0F006602000088FC0E00FFFF0000000200002CFC0E00FFFF00004904000070FC0E00FFFF00000B09000074FC0E00FFFF00002E010000D8FF0E00FFFF000062190000D0FC0E00FFFF000020C90000C8FC0E00FFFF000038850000DCFC0E00FFFF00001CC80000CCFD0E00FFFF0000048000005CFC0E00FFFF00000200000020FC0E00FFFF000019210000E0FC0E000080000000000000C0FC0E00FFFF000022000000948F0800FFFFFFFF00120012988F0800FFFF0000001200009C8F080000FFFFFF00030303C31400DE
:FB021E0012651419783F0424306070047180764A3108290ACF090010000F6EF0B009F0601A2400FF0008080312FF10FB0EF70CF30AEF08EB06E7040312FF10FB0EF70CF30AEF08EB06E7040301000182D600FF0602020A233C5A6E7D80008000800080008000800080008000800080008000800014FF19840AFF200000000000000000000000000014FF19820AFF430000000000000000000000000014FF19000AFF660000000000000000000000000014FF19050AFF660000000000000000000000000014FF190B0AFF430000000000000000000000000014FF190D0AFF200000000000000000000000000041000000007B0000000041000000007B00000017
:FB0319000041000000007B0000000041000000007B0000000041000000007B0000000041000000007B000000008612000413004008000040130001000180FF000112C15E0044041422A244041422A23B04B104B204B304B404B504B604B704B804B904BA04BB04BC04BD04BE04BF04C004C104C204C304C404C504C604C704C804C904CA04CB04CC04CD04CE04CF04D004D104D204D304D404D504D604D704D8280C000B0400D44B09000B0400904C09000B04007A4D0900081F0000B0DB010078F04EFC100050640900281C5F3000210170391C321D87F7AAFB080F000184E0000030BD00B50000000000000817000288E0000087F0F8F808007C52090000A4
:FB041400F002F800BD000008170003586600008FF0B0F90800BC590900FFF781FF30BD00000B0400565B09000B0400805B090008170004209E02006CF024F908006C600900FFF7C0FF70BD000008150005C08400008DF030FE060024610900FFF7A6FF30BD082D0006B47702006EF0B9FC1E002A61090002B461684907C90F301C91F7C5FC02BC002902D0F06991F73AFB91F73CFB080F000724B500000FE0C046000000000000080F0008C44F000010E0C046000000000000086700091CF0030057F094F858004861090070B5061C0C1C151C002B21D104A8008840281DD105A80088202819D15A2917D8081C15D003F0D0FA002811D1032D0FD022041214F7
:FB050F0008210748002303F0CDFA002806D1221C291C301CA9F703F8012000E0002070BD18650800080F000A988000005808042B0000000000000817000B680C040055F09AFA0800A061090000F002F870BD00000819000C64D4000088F01EFF0A00A4620900281CFEF77FFF77F7F0F80813000D08D6000088F051FE0400AE62090077F7AEF9080F000E80DA0000C046C0460000000000000815000F2452000091F045F80600B262090000F001F8F0BD0B04001464090008190010845C020070F0ECFB0A00606409009B005859EF188FF70FFC0815001164F8000086F001FE06006A64090000F001F8F0BD082F0012C4F6010076F058FF200078650900054B03
:FB060A0030B4054CE57949190C06211630BC195489F79DF8C046903408008C03080008170013487C02006EF0A6FC08009865090000F002F870BD0000920600A30080001419081700148002030066F000FA08008466090000F09AF899F721FE081700152848020071F030FF08008C66090000F03EFA8EF727F908170016B473020070F09EFA0800F4780900FFF770FE8FF7EDFD080F001734C40100C046201C000000000000081700181403030067F0F2FA0800FC780900FEF794FF6CF756FD081700192447020071F0B6FF08009466090000F0CFF98EF759F80817001A6847020071F098FF08009C66090000F0E1F98EF771F80817001B0C4D020071F0CAFC7D
:FB0705000800A466090000F06EFA8EF748FB0817001C404D020071F0B4FC0800AC66090000F084FA8EF762FB0817001D7C4D020071F09AFC0800B466090000F0EEFB8EF776FB0817001E7854020072F034FA0800E4780900FFF7CAFD8DF7D7FD0817001F0C57020072F0EEF80800EC780900FFF726FE8DF75AFF081900204472010080F0DFFC0A00067C0900FFF7F5FF7FF71EFB0000087F0121A444000093F0BCFC7001207E090000B528490B6826490B6024490B6822490B601E490B682D490B60434B43490B6034490B680120C00303430B6040490B78002B04D02F490B68400303430B602D4A13685B085B0013603A4B3B4A1360B1F774FAB1F79DFEB24C
:FB080000F7ECF9B2F792FB0D21364801F055FC364A9068002803D099F79DFBB1F739F92448244A11684160244A60E0C046C0B00800FFF2011A94990900848FB002D08B0E00A0800E0098990900148B0E009C9909006CE50500A09909008C150800077D0900377D0900117E09008D7D0900F97D09005C000F0094830E00FF00FFFF608B0E0040230001E08A0E00E02C0800A4860E0088B2080005000080850000801C800E0014800E00848F080004830E00108B0E00C8FC0E00C42C0800CC2C0800D02C0800C82C0800D42C0800D4FF0E00BC8B0E00AD020000CC8B0E001CCD080010325476D48B0E00009D0800ECCC080011684161054A11688160054A136858
:FB08FB000360044A1368044A136000BDC046D02C0800C82C0800D42C0800D4FF0E00086100220044000093F006FC5200107C090010B5A448002383700423437001230370A14BA2480360A24BA24C2360A24C2368A24C2360A24C2368A24C23602C22A249A248BCF79FFEA148A14C2060A149C160A1494162A1490161A14B8361A14BC36110BD080F0023D0B80400A5F809E00000000000000815002420BA04004CF01AFD060058840900FFF7D4FF30BD081500253CB004004DF00FFA06005E84090000F001F870BD08170026EC8A04004FF0FAFC0800E484090000F002F8F0BD0000081700273069040051F0A4FE08007C860900FFF7C4FFAEF774F90819008A
:FB09F60028545D040052F096FC0A0084860900B4F7ECFBFFF7B2FF30BD08190029E0A504004EF055F80A008E86090000F003F803B0F0BD00000817002AE882040050F024FA08003487090000F002F830BD00000817002BB0B104004DF03AFB08002888090000F002F830BD0000082B002CDCC004004CF006FC1C00EC880900FF233D3343430448C0189F300078002800D101207047C046349D0800081B002D94AC04004DF042FE0C001C890900201C00F003F8B2F7BAF90000081B002EACAC04004DF082FE0C00B4890900201C00F003F8B2F77AF900000823002F3CC104004CF0E4FB14000889090029187F231B02FF339D4200D35D1EFF23B3F712FC0817FF
:FB0AF1000030981B030066F084FF0800A48A0900FFF7D2FF30BD0000082B00311C7B040050F0DEFF1C00DC8A090004910FB4301CFFF7E3FF012802D10FBC05B0F0BD0FBC062DAFF714F8081F003218AC04004DF0AAFF1000708B090003D1FFF7C1FFB2F752F8B2F751F80000080F00331C730400C046C04600000000000008170034807A040051F036F90800F08C09000420AFF7D0FA10BD081700359882040050F02EFD0800F88C0900FFF7CAFF30BD0000081700366CA804004EF0FAFA0800648E0900FFF74CFFF0BD0000088F0037D8F1010079F048FE80006C8E0900F0B583B0012100910027C0237B431A481C18206BC00729D5251CBC356B78002B2425
:FB0BEC00D1261CE38D2C36002B1FD0B379002B02D00021009119E0211C0C310F48052200F020FC002811D00223B371201CB3F7A2F901A9201CB3F78AF901A9A878B2F724FA082201A9A878B3F7A6FA01370F2FCBD3009803B0F0BD28900800104F08000815003894A304004EF054FE060040900900FFF7E8FF10BD080F00390CA3040000F01DF8000000000000081D003AA4CC04004CF0CFF90E00469009002878B2F7ADFD201C00F001F830BD080F003BA4630400FE23F5330000000000000823003C68F1010079F07EFF14006890090081F74EF804D5207C854201DD86F77BF886F79BF80877003D7461030062F082FF68007C90090010B500248DF71EF834
:FB0CE700012803D309D0022820D102E09FF768FC01E0A4F7D0FF041C18E00D490B78002B14D00C4A106803680B4A13600B4A1378002B0BD08B784978002B03D04B00FF21013101E04B00802199400160201C10BD481B0800E40A0800AC5808003A010800080F003E7C640200131C03600000000000000857003FB462020072F016FF4800E490090000B50D490868002804D003280FD0052811D104E009480378002B0CD007E0084B1868012200219AF73AFB9CF70CFF05490B680120186000BDB0C80800D1CA0800F40A0800E40A080008230040C0B903005DF0B4FB14002C91090003D100F007F8012802D0A000A2F744FCA2F744FC081900417847000094D6
:FB0DE200F066FE0A0048940900381CFBF7A9FC6BF796F908190042AC47000094F051FE0A0052940900281CFBF7C2FC6BF7AFF9081B00433CDB00008BF08EFC0C005C94090081B000F003F874F7D0FB000008270044405B010083F008FB180054910900002E02D00020E05504E0E35D002B01D0013BE3557CF703FD081B004550A704004EF094FA0C007C8C0900381CFFF795F902B0B1F766FD0817004658A704004EF096FA0800888C0900FFF7B3F9B1F773FD08210047B03C010085F050FC12005495090001B4301C00F010F801BC75F7B1FD7AF7A7FB081D00485CB503005EF003F80E006695090001B400F00FF820BC6B01A1F7F6FF08170049A8A003000C
:FB0EDD005FF064FA08007495090000F015F8A0F7B2FD082B004ACCB203005EF080F91C00D09509001378002B07D103B400F008F8012803BC01D1A1F776FEA1F780FE0000081B004B74B403005EF0C6F80C000496090000232B7500F02CF8A1F734FF081D004C1C69020072F078FE0E001096090003D100F027F8A3F7E7F88DF782F90827004D30BB03005DF075FD18001E960900012D03D1002E01D100F056F8A068A3F702F80021A2F780FA0827004E0862020073F015FA180036960900201C08B4019900F01BF808BC9C4201D08CF7E1FD8CF7EBFD0825004F9CBC03005DF0D7FC16004E9609001B0705D400F044F8002801D1A2F721FBA2F74CFB00000AEE
:0A0FD80005002DCB080001FE00000B
:FB4B000030B538483849086038483949086000F03FF901F07DFD00F05FFB00F073F900F023FB00233348037000F07EFA00F090FA03F02EFA304A101CE430304B0360304D2B6802252B432E4D2B602E490B688024A3430B6000232C4D2B702C490B1C23332B4D2B602B4B2C4D2B602C4B2C4D2B600B1C12332B4D2B602B4B2C4D2B602C4B2C4D2B602C4B2D4D2B6012232C4D2B700B1C11332B4D2B602B4B2C4D2B602C4B2C4D2B602C4D29602C4B2D4D2B602D4D2B682D4D2B602D4B2D4D2B602D4B43672D4BD36200232D4D2B602D4B436530BC08BC18472B482C4908602C480649C8647047C046F9510900BCC80800FD510900F0C40800B89B0900A01908A0
:FB4BFB0000A55209006C010F0040150800FD0708001E450000A898090020C90000AC9809001CC80000B0980900B498090038850000B898090044050000881308006C0400008C13080090130800781308000EC90000801308000AC800007C130800841308002685000074130800D8FF0E00BC98090062160000C098090097590900818B0900A498090061650900014B090090000800D963090070B500200F49104B4B6114E06B099C00EB06DB0E01259D400B592B430B5143004C69C50052195268012632432725AD03AA1A1A530130054AC3009D58922DE5D370BDC0464C1B0800F8990900809709000020704700207047002801D0002000E0012070470020EC
:FB4CF600704730B582781202437813439A05920D1B0AFC252B400C2B05D1032A2ED104F05FFA01202BE00124FC2B22D1C22A0ED0C32A0FD0C62A1ED30FD0C82A10D312D0CB2A13D9E62A16D103F0C3FA14E001F09EFDE6E701F0E4FDE3E704F073FAE0E704F0ADFADDE704F0EAFADAE796F765FDD7E7042B02D10024201C00E0002030BC08BC18470248024908607047C046F94C090018C908000020704701480249886070478D4D0900201A080030B5051C7AF78EF9041C281C8AF71DFA8749201C2830062204F09AFC00280BD1844C2560012363717F21C943A01D072204F096FC00232371002030BD10B5041C0120A040C1437C4803680B40036089F75177
:FB4DF100F978480368A34203D1FF2303600023437110BD75487649C8607047F0B583B0041C012906D164300023C372251C9435AB73EB736F4803689B079B0F032B02D071F75CFAC8E00023A381E07B484000D1B6E070F7F7FC002803D1674803691B0101D5012100E00021271C64373E1CFB6880208343C8010343F3600C365F4A1078431006D0C3071B0E31688020814319433160594803691B0102D4381C94F7D4F9BB69002B02D03B681B063BD4338868460380E37B012B0DD0251C94356B7B002B10D02B88042B0DD3EB7C022B0AD3AB7D002B07D1A72303201855009B78208343002106E00121E974009B78208343082003431F20800283438802034352
:FB4EEC0000931B041B0C3F4A1360012030723B4A13691B0152D400984006010F00231A1C012094F7B4FB45E0E07B002802D1A72301221A55012804D1E37C042B01D072F7A7FCF37A002B06D00023F372336801204002434033600121B172251C9435A97326480369DB0002D5201C87F7B7FD338824490B60B0884860381C70F7D7FC30684006030F2048C05C3072431EA381E37B002B0FD10121387F81401C4A1068084008D1E37C042B05D019480378AB7519480378EB75114803691B010FD5201C94F70DFF0BE0271C64373B727B7270F765FC636C002B02D05A231B5BA38103B0F0BC08BC184709C10800C4980900000408000D4E090000020800188B0EDC
:FB4FE7000054200800DCC80800CC8A0E009EBB0500B4010800F5010800F601080030B50D1C041C75F7ABFE6B075B0F012B05D1E37B002B02D1A07B9CF7EAFD30BC08BC184700B52C2204490548BFF7A8FC034804494161044B186000BD0CBD0500D498090005500900E402080010B53F4C3F4B1C602C223F49201CBFF791FC3E48606210BDF0B5041C051C876A28353B4B42331878002866D1201C012172F705FA061E4BDD022804DB201C77F77FFA002859D1618C8B1F9E4223DA304A13689C420BD0391CAB310878013800D30870731C5910201C77F70CF830E0731C5810E37B002B05D07B6C002B02D06B7F002B25D02F89B84222D36A89002A06D1A38941
:FB50E200002B03D1201C71F713FE18E0BA4200DA3A1C904201D90C2310E04B23A27C1B5D9A420CD102280AD36B7F002B05D014480378994201D9282300E03823A374211C4D31087800280FD00238087000060BD1E37B012B02D0237D0C2B05D0321C201C0523022177F768F9F0BC08BC1847009909000003080074BD0500695009006C210800F402080000B52C2216491748BFF708FC1548164B18601649016100BD30B50D1C041C78F750F8022D09D16B23185D002805D0201C87F739FB201C87F771FB30BC08BC184700B5011C6831CB78002B07D04B7A002B04D18B78002B01D087F748FB00BDC0462CBE05002C990900300308008151090000B52C2203BF
:9F51DD00490448BFF7D0FB024B0348036000BDB0CB050058990900F40308000020704730B5041C002926D0012920D1400516D421E0154D291C1548B8F713F82988281C262902D103F01BFA09E0042902D17CF75EFA04E089000E4A8958C6F73EFB0B48B8F717F80028E4D00A4B1C4003E0022901D17CF71CF8201C30BC08BC18470648064908607047C046F4440800284508009CBE0500FFFBFFFFFD510900F0C4080048
:FB52840000B5431E04490B6004490B78032B01D1C0F738F800BDC046E08A0E0038080800F0B587B0061C0491081C00210391A54C2064211C4431009100238B70A2488568002D00D149E2AB7D002B09D0012203920023AB756361237810208343237006E06069002803D0012E01D970F751FF22691D27FF03002A50D0607A012803D19389002B4AD047E0914B1B5C002B43D1BB68DB0742D4137D092B3DD204281AD1012E18D196756261237810200343237023683B6087490B687233187802282DD0002384490B608449086884490B6803600B68036022E002280AD1012E08D196756261237810200343237023683B6015E0032803D17B498B78022B0FD00687
:FB537F002801D0032805D1012E03D1BB689B0600D59BE1122803D0102801D070F77BFE6C4B985D0290002863D00123DB07334301936D4B6E49086898636D4901220A600099CB78012B49D06B490B689B0C9B040B600B6869490868034366490B600099CA7066490B6866490B6066490B6866490B6066490B685C490B60654908686549086065490B6865490B602B7C1A2B11D164490B6864490B6064490B6864490B6064490B6864490B6064490B6864490B60644910E064490B685B490B6063490B685B490B6062490B685B490B6061490B685B490B606049086860490860A87B2318042801D3187800E0205C6F229043187054E0A87B225C0F218A43310721
:FB547A00090F0A43225423180428049802D38107101C01E081071878490E6022904308431870324B4F4908689863009AD378002B34D031490B689B0C9B040B600B684949086803432D490B600023D37047490B682D490B6046490B682D490B6045490B6832490B6044490B6836490B6043490B6830490B6042490B6830490B6041490B6837490B6040490B6819490B603F490868224908603E490B6822490B60002101912868826A281C0021C6F7C5F9002873D026231A5C002A6FD08368002B6CD00298002867D0802301981843019061E0642C08006C210800ECBB0500DC02080060000F00AC2C080044020800882B08002CFC0E0060020800E08A0E00B83E
:FB5575008A0E005C0208006C130800D8FC0E0070130800E0FC0E00881308008C13080030FC0E00C0980900D8FF0E00A8980900CCFC0E00B0980900DCFC0E00AC980900D0FC0E00B8980900C8FC0E00B4980900781308007C130800801308007413080084130800D4FF0E00B82C080048020800BC2C0800C02C0800C42C0800C82C0800CC2C0800D02C0800D42C0800D82C0800DC2C0800BC98090001E0012200E00022237880208343D0010343237020200499084001D00120C003B04908600499090704D4AF490B68802083430B600499880801214140A27880208243C8010243A2702868826A281C0321C6F728F9A5490B78012B01D077F7C8F805A9A34A14
:FB56700013687020034018099CF715F92369002B14D0637A032B11D188F776FC002806D19B480368032B02D00368062B06D12B7C122B03D100980121817058E005988007800F06D003280ED1069B92490888834209D30398012800D1656170F7E3FC009901224A7043E00820B860A87B786223683B603B1C1833221D03929207920F02D1039909680FE00399891A0391D2000968D140049120218A1A03994968914001B40598014301BC1960BA69331C103B042B0DD2FF2301338340774810401843B861102E07D1754908687549086002E072481040B8610198002800D07861E5602672002300990B704B70281C8CF72AFD012007B0F0BC08BC1847F0B56AC1
:FB576B004CE568002D02D1201C0930A0E0EB7B012B09D1201C1830AB7BD9004358634A13600B185B685360217A614F3868012901D1084301E04008400038602868826A281C0021C6F77FF800281AD02623195C002916D08368002B13D070F71AFF554E237AF05C55490B68002803D001204006034320E0524803400B603B6802210B4318E04D490B684D4803400B604A4E237AF05C002802D04A49887901E04A490868236CDB0601D4484908603023DB432E3338680340391C0B602868826A281C0121C6F741F8071E12D00368002B0FD03F49086900010BD41022391D3D48BFF79DF838683C490B6883210B40184303E0394A10688321084037490860207A94
:FB586600335C364A002B136814D0012189030B43136033490B6833490B4033490A7852021343324E3360324E33683026B3431021194308E030490B401360294A13682B4A13602B4A11682C4A116060720023E360201C0830256100220270F0BD10B5134C164B607A185C002802D070F750FF55E06069002801D070F75AFC20490868637A012B41D11F4A3EE0C046648B0E00A4860E00D4C1080024860E001C840E00E4B60800FFF0FFFF9406080064FC0E00642C080018820E00A8860E00ECBB05001C800E00FFFFFFFD002D08007C030800108B0E005420080080810E00E88A0E00808B0E00B02C0800FFC1FFFF9013080088FC0E00B42C0800FFBFFFFFCC6A
:5B596100FD0E00AC2C08004002080000E00E4A136803601168016000230C4A136070F725FE00230A490B60E3602361637244340120207010BD002803D1064803680648036000207047C0464402080060000F0018800E00BC980900D8FF0E00F5
:FB59C40070B582B0061C65480168890602D5022072F701FC624C2568A3682360002D26D0002E18D19EF7D6F9002814D0C30703D52A68916900290BD1430703D52A68D169002905D1830706D52A68116A002902D0281CC5F74EFF9EF7DAF9011C2A685269002A04D0002802D0281CC5F73FFFA0680026A84218D0002D21D02A681269002A03D0281C0521C5F731FFAE8123699D4200D126612B7D092B11D3281C73F7CAFD281C73F74FF90AE0002808D06369984205D166613B4800220121B7F7FFFE3A48C16E002904D0A368002B01D1C5F711FFFFF768FEA06800284BD08681037D092B20D26369984205D166612E4800220121B7F7E4FEA068A84206D101AF
:FB5ABF00684968002902D00523037508E0017D032901D0042905D101684968002901D0C5F7EAFEA0680223037501680A69002A02D00221C5F7DDFEA068807B1D4A136870210B401909884216D169469BF7CCFE70F742FC002801D0174800E01748028800998907890F04D0032905D1019B934202D33F2301201855A0688CF7C2F901208CF7D2F9A66066603C3426716671012002B070BC08BC18470948044988617047C046C4C408006C2108000C2D0800201A080024860E006602080064020800C5590900A348A4498865704700B5A34A9007800F01D1116808E0121AC0001368C3402021081A516881401943C90F9C4801709C4A1068002817D09B4A02608C
:FB5BBA009B4A82609B4AC26001239A4A137000239A4A13609A4A13609A4A1360012902D100F007F802E04068C5F767FE08BC1847000000B500F003F808BC1847000010B564239048037000239048036090480360904C236000F04FF8814A9007800F01D1116808E0121AC0001368C3402021081A51688140194301204007014015D085490B68001403430B6084490B68844803400B6004390B680120800303430B60804B81490B60030380490B606C4A9007800F01D1116808E0121AC0001368C3402021081A516881401943C90011D5784C2368002B02D0201CB7F7E7FB7549201C00231A1CB7F7C2FB73480168201CB7F7C8FB8EF744FA10BD10B5704C239C
:FB5CB50068012423436E4C236001239B036D4C2360544A9007800F01D1116808E0121AC0001368C3402021081A516881401943090105D5624803680220034360480360614800218160F421C16020210161E8218161E9214161102141624021C161016205239B04036010BDF0B583B0041C02910026019600964B0054481D5AFF271137BD4211D18023185D514A835C1B01514818188388002B07D03D1C1035837A012B06D13D1C203503E0002D01D12E1CBEE0201C8CF7A9FB002800D0402546480368002B07D0602D01D1E0251BE0702D08D1D02517E00298042801D0022801D101263604302D06D17023185D002802D03D1C703507E0502D05D1236FDB057F
:FB5DB00002D501235B041E432E437037BD4203D02B093348C15C0091302D0BD17023185D002807D1201C2830037D807A19180906090E0091009803031E43E37B002B02D00121C9030191E37C032B06D1608CC306180F0302019919430191402D42E0C046895B0900A0190800C005080030C8080044060800ED5B09001D5D0900F35E0900B805080034C8080038C808003CC80800D005080040C8080048C808004CC808009C800E0010800E00FFBFFFFFFF030000BC820E0010000C0068500800673D0200D405080070010F005C000F0074820E00D80508009005080024500800D4C408002406080025D14C480378002B06D0201C8DF786FE03071B0A1E431AA2
:FB5EAB00E00123DB041E43A07B9BF711FD4008444A1060444A11689BF7A5FC434A1060434A1368984204D2201C8DF74CFE002802D001233A4803703E4806600199416003B0F0BC08BC1847F0B582B00F1C051C0022009201908CF7DCFA354E002844D034682E48017800291AD1A87B9BF7E0FC40082B4A10602B4A11689BF774FC2A4A10602A4A1368984204D2281C8DF71BFE00281BD0012321480370264B1C4015E06B6E1B0612D4012910D1281C8DF70BFE00280BD1A87B9BF7BBFC41081A4A11600023164A13700123DB041C4314480378002B03D001988CF745FF0090174B1C40009803071B0A1C433460042F01D0022F05D13368012109040B430121C8
:C65FA60007E00F480378002B06D033680E490B40002133600B48017002B0F0BC08BC1847C046B805080038C8080034C808003CC80800CC05080070820E00FFFFF7FFFFFF0FFF45C80800FFFFFEFF70B503685A06120F092A04D0847F9B05DB0FA34204D0C368144C2343C36012E04B03C36806D4114CA343C3600823104D2B7008E00D4D2B43C36001236340837705230B4E33700B4C23680133012B04D0082A02D10123084A137002234372436804221343436078F71AF870BD00010000E8C00800E08A0E00EAC0080040
:B060740030B5041CC37C032B27D1037D0C2B24D11830437B002B20D121490B699C4202D18B68002B13D0418900680B1858010509A07B9BF718FC854201D3281A03E0431B01200007C01A831F1648834205D3201C73F798FA201C72F726FF237D022B03D0032B01D0042B07D10F480379002B16D0201C70F76FFD12E00C480369002B02D0201C70F704F806494123585C012804D0002804D10B689C4201D172F792FA30BD6C210800FBFFFF07A42C0800642C080026
:FB61A80070B5041C00253848436912219B0708D5364A1068364A106050304079122800D8011C43209DF73CF8324BA360324B2361201C0830AAF7DDFE2168086063681D60AAF746FF201C1030AAF7D3FE216808600420AAF755FF6061062801DAAAF738FF201C0830AAF7C5FE216808606368002018600420AAF744FFE060201C1030AAF7B8FE216808606368002018600420AAF737FF6061E368C61A301CAAF787FF042817DD01350C2D14D0301C042E08DDAAF77DFF8100081A2169081802382061CFE7AAF774FF8100081AA168081A0230A060C6E7A16820690B1AE3614018C30F18184310236270BDC046181B0800D4CC0800809B0900FF03000001FCFF43
:0162A300FFFB
:FB62B800F0B5444D2B68987B9BF70BFB46082B68996C301C9BF7A0FA041C2868011C94314A88002A10D094420ED9037D0B2B0BD00D2B09D070F76FFB2B686433197F012000037BF741F864E00B7D002B06D0CB88F31A1B041B0C9C4200D81C1CC36F6430002B06D00B89F31A1B041B0C9C4200D81C1C8A88B31A1A04120C944200D8141C0B881F1FBA4204D3CB7C022B01D30023CB74214E33889C4204D80020BA422ED303202CE073889C4201D8042228E0B3889C420BD9007F74F791FE002814D0037C112B11D115494B889C4203D829689431052215E08B889C420DD82968943106224A745E2383740CE0F3889C4203D829689431062204E02968943107B2
:AD63B3002200E0021C4A740B7E012B04D1531F012B01D804234B74F0BDB421080034020800EC02080010B5A3F7A3FB0B494B699B070FD50A48036801200343084803600A249BF720FD013CFBD1044803685B085B00036010BC08BC1847181B0800F0FC0E0010B5094C2C220949201CBEF7B1FA0849E160084B1C6010BDC27B4A4002D0838C05490B607047C046849B090034CC05002D64090010040800CC8A0E00281C5F3000210170391C321D87F7AAFB61
:FB647000F0B5041C0027C56D8726F600002D04D1301C9BF77CF8051E03D0301C9BF777F8071C2E4803689B025B0F012B2CD1A9F74DF9002828D02A480368002B09D1301C08309BF764F8264A1060311C0831BEF783FD24480368002B09D1301C08309BF756F8204A1060311C0831BEF775FD002D0ED0002F0CD01B480368002B08D018480368002B04D01BE0002D01D0002F17D1E02300201851E565E4210859C30208D4031C114803430B515022206807217DF79CFA0E480368002B0DD19BF734F80AE0E5656760E4221359074883431351206807217DF7ABFA0020F0BDC0464C0B0800444408009C440800000010006003080000231360012805D10123DB15
:0D656B00040B6007239B03136070470000C2
:E465A000B0B503685B011948C21880270F404906490E9068002827D00568281C041C002F06D0437B8B4201D0002300E0012306E0037B5B088B4201D0002300E00123002B0FD0A84205D1137C002B02D1D37F022B0AD0111C08319BF7B2FD201C9AF7A0FF02E00068A842D9D1B0BDC0467C2908000C480D4908600D480D4908600D480E4908600E4B0E490B600E4B0F490B600F4B0F490B600F4B10490B60104B10490B607047C0468F6D090064C80800F96B090068C808002572090080C808003D67090054C80800E569090070C808003D770900B49B0900A572090078C80800C8970900B0060800F7
:FB66BC0070B5051C7CF7C3F9011C041CEA691204D20F2273032363730C34324B186800090226800706D5F42043599B0702D5A6702D480660F4204359DB0601D4002A01D1002000E029484860281C90F754FE0023274A137070BD30B5041C0D1C7CF797F924494B681A7BD207D20F0273052343738573214A4260011C201C90F73CFE30BD70B5051CF4352B68DB0603D50321FFF7E2FF1EE0061CAC68002C03D0201CB6F782FE0AE014209AF7D7FE041E11D0A860321C12490023B6F757FEF1690906C90E201C0A2902D1FF21913100E01021B6F756FE08494B68987B0349086070BC08BC1847C046641B080088500800D34902005CC80800F4440800556E098F
:FB67B70000D345020010B5041C6B4A1068C00702D4112323702BE008790002C9780843012178F7FDF9002803D0F8221158490701D51223EEE7C169090403D4F4210B589B060DD55D4B19684906490FF42212589207920F914203D159490B78002B01D00C23D7E701230B7028342370FFF74BFF10BD30B5051C0C1C08790002C9780843012178F7CDF9002805D0F8221158490701D40B2019E0C169090417D4F43003685B0601D40E2010E0282301205855424908684006400F022808D1414A1188601D01F035F9002801D10D20287030BD30B58A7B002A01D1122340E0374CCB7820680225002B06D0012318432060364803682B4305E00123984320603248C6
:FB68B2000368AB43036031480B7903704B7943708B7983702F48CB79202B02D12E4B186002E02D48402BF9D0487A00020B7A184340102A4B1860C0006080C87A00028B7A1843204B1880487B00020B7B1843244B188024480280CB7B244803700B7C2348037030BD164A1168C907C90F817317490B78C3734B7803748B784374164A1168090A8174164A11684900C174090A01750D4A11884175090A8175114A1188C175090A017610490B8843760F490B7883760F490B78C3760E23C3707047C046641B08005CC8080098980900301B0800A80608001E200000940608003A400000900608009A9809009C980900B19B0900B29B090010B5041CFF20052194A0
:FB69AD00F70BF9002806D016238370C470210A017194F78DF810BD10B5041CFF20052194F7FBF8002806D018238370C470210A017194F77DF810BD10B50024201C00F002FC0134042CF9D31821B048BEF7E6FA00F082FFAE480268D10708D55106490F022904D1AB4A116872230B4313600023A9490B70A9490B704088C010A8490860A8490B7010BC08BC184730B5051C00244E236343A4481818811C281C062202F051FE002803D1201C00F0CDFB02E00134042CEDD330BD00B500214E2048439A4A8218507800021278104302D08DF76AFE04E001310429F0D38DF79DFF00BDF0B5061C04250024904F4E206043C019811C301C2830062202F025FE0028BB
:FB6AA80001D1251C02E00134042CEED3042D0DD100244E206043C119487800020978084301D1251C02E00134042CF2D3042D18D24E236B43DC19311C2831A01C0622BDF74DFF5C20805B2070000A6070311C201C083000F008FA311C283175480622BDF73DFFF0BDF0B5041C0F1C00264E2070436E4BC518A91C381C062202F0E5FD002803D00136042EF1D326E0201C78F713FC291C0831201C00F09AFAE0690F21C9050843E061201C0F2303863030868D69780C022A781443A64205D05E4A0121B14013688B4313605B4A0123A3401168194311608485012000E00020F0BD10B582B0062255496846BDF7F9FE002469460623634347481818062202F0A657
:FB6BA300FD002801D0012003E00134042CF0D3002002B010BDF0B582B0071C062248496846BDF7DEFE00243B4E0622151C65436946A81902F08BFD002806D1391CA8190622BDF7CEFE012003E00134042CEBD3002002B0F0BDF0B582B0041C0E1C171C394DFF2001302058002801D0B6F728FCF8210859C00700D48FE0002E00D18CE0002F00D1A3E00859800700D49FE00026E069000408D501A886706846831D2A480122002194F7F5F9201C6DF74AFEE069F821884340210843E061F822105904229043F8221051201C90F704FF206800216DF772FE164A1378002B0AD0E06900043BD41A4880791A4A1178014001D1002831D1271C5C3739880023321CB0
:FB6C9E00301C94F729FA3888FFF78DFE2E7008490E701048067022E0C046049A0900641B0800301B08005CC808005DC8080090060800B19B09001C9A0900B7C10800D0200800B8970900C0970900B09B0900B6FC000084990900B29B090001232B70201C28308DF70FFDE069000407D48DF72CFD8DF7FCFF012801D18DF71BFDBC490E70A36B1B072FD5E06900042CD4B9494B681B0528D5201C01218DF7CFFF23E0B5490868800715D5F82210590821084310518021E069000400D44900AF4A11600120000778F7ACFF002E0DD1201C8DF758FE09E0E069000403D5201C8DF704FF02E00123A6480370012002B0F0BC08BC184730B503685B01A249CD18047E
:FB6D99001CFFF776FEE069000403D4201C00218DF796FF20687CF74DFEE0690006C00E0A2817D1012120688140984803688B430360201C74F762FEE069F821884340210843E061206884F785F9201CA030042102F0A2FC211C281C01228FF77DFEE069F821884318210843E061F82108590721084340218843F8210851206801218140CA4383490B6813400B606DF7AFFCE069000403D47F480378012B03D05C342088FFF7B4FD012030BC08BC184700B5011C1D2078F7ABFF08BC1847000070B5061CC169090417D4051CFC352C68002C03D0201CB6F7FAFA0AE014209AF74FFB041E09D02860321C6C490023B6F7CFFA0C21201CB6F7D6FA70BC08BC18473B
:FB6E9400F0B5071C0024664E0622151C6543391CA81902F023FC002805D1A8190621BEF789F8012003E00134042CECD30020F0BD70B5061C00254E236B435A481C18A11C301C062202F00AFC002803D00135042DF1D310E0221C25329107890F01D1106808E0521AC9001368CB402020411A50688840184300E0002070BDF0B5002900D1AEE0041C00D1ABE0C8694005400F2070C8698004400F6070486BA21C93079B0F01D1106006E01070000A5070000A9070000AD070886BA21D93079B0F01D1106006E01070000A5070000A9070000AD070C86B221C0A3293079B0F01D1106006E01070000A5070000A9070000AD070086C221C0E3293079B0F01D1105D
:FB6F8F006006E01070000A5070000A9070000AD0700D1C50352888A074000AE074AB782375EB786375CB7BA3758B7EE375CB7E23761E480378637698204058400FA076E889E076000A20770F1C9C37B86D221C1D3293079B0F01D1106006E01070000A5070000A9070000AD070261C2036C86C4001C00F7070C86C00011AE0C0465CC80800181B0800641B0800D45008005DC808007C290800E4C70800B4C40800B09B0900456E0900049A09001C9A090078980900C00FB070C86CC000C00FF070C86C8000C00F30711022291C1031701DBDF792FC1022291C2031301C1530BDF78BFC4534F8782070F0BDF0B5002800D1B8E00C1C00D1B5E04978CB00227823
:FB708A005207520F1343C2693F2109028A439906890C0A43C261A31C9A07920F01D1196808E09B1AD2001D68D54020218A1A5968914029434163A31D9A07920F01D1196808E09B1AD2001D68D54020218A1A5968914029438163231C0A339A07920F01D1196808E09B1AD2001D68D54020218A1A596891402943C163231C0E339A07920F01D1196808E09B1AD2001D68D54020218A1A5968914029430164061C5036E17C0902A27C11433180637DF370237DB370A37DC373E37D8376237EC376A37E98210A58D200D208191C1D2349070A4398210A50217F0902E27E1143F181071C9C37221C1D329107890F01D1156808E0521AC9001368CB402025691A5502
:FB718500688D401D43BD65251C20356B78002B04D0C16C012292061143C164AB78002B04D0C16C0122D2061143C164EB78002B04D0C16C012212071143C1642B79002B04D0C16C012252071143C1641022691D301C1030BDF7D4FB1022291C1531301C2030BDF7CDFB45342078F870F0BD10B5042810D24E21414307484418002020706070A01C0621BDF7DDFE044A1188201C0830BDF7D7FE10BD1C9A09007A98090010B5AC4AAC4900780302AC4C20680004184308601078C3020868184308606068000423681B0C18434860507888600020C860012010BC08BC184710B5041C00290AD18DF7D5FF70342078042815D19C484379012B11D10EE0022906D159
:FB7280005030407F76F7FFFE0023A38107E0052905D100F0E7F8002801D18DF79BFD10BC08BC184770B5904D2B68FF2B56D1002077F7C2FC2860FF2850D001238B4803608B4803708B4C0323E3748B480168201C6FF7FFFA25232374022363743323A374201C7030042303700023437023632384824803685B006384242000230355E3818EF753FA286877F755FF7D4E30607368802003437360286877F7D4FE211C503103680B77C269C8680726B0433240104301225202104380221043C8600023CB750B6813430B6001238B7702234B776D496D488DF78AFD201C6FF73EFA012070BC08BC184770B5061C041C0023674803605F480378002B04D140235CA7
:FB737B00490B60980527E04B0704D570342078042867D144E08B0724D5351C70352B78022B5FD16978564802685A4803684B43301C934213D95300638418360123737304232B703323A37400236B706FF7A4FC2023474E3360D80578F773FC42E0013169701EE0CB073DD5351C70352878022838D315D0042817D334D147490868430E47490B6047488DF726FD02232B704823A37440490B685B006384183401236373301C6FF779FC1DE0102331480360180678F747FC334803685B00638418340123637304232B7000236B70301C6FF7C2FA35493548062202F04EF9002802D133486FF7B8FA70BC08BC184731498868002805D0007C2438012801D8012077
:FB74760000E00020704700B51D211C4802F055F91921274802F051F9FF23274A1360144A13600023264A1370FF23254A13608DF796FC00BD10B583B0041C0C22E92109036846BDF764FA694600200A7801312254174B1A5401300628F7D34B78A37103B010BDB19B0900B8890E0038800E00A42C08008C060800D4500800BEC10800F0500800B00608009006080000820E00D85008006400080018800E009806080098830E00E4500800E0500800549B0900E8500800645108006C21080088060800BFC108008898090000B500231E490B701E486FF781FA1E490868FF2804D077F708FDFF231A490B6001231A4803601A480378012B04D18EF766F80023168D
:FB757100490B7000BD30B5041C051C70352B78022B18D1503076F7A4FA58231B5D022B11D1236D5B061B0F032B0CD10C4A1068410308D50721C904014004D10948FFF77CFF03232B7030BC08BC1847BEC10800F05008008C060800D4500800BFC108002C8B0E0084990900F0B582B00C1C01D1042099E0051C4D480268002A08D0281CC4F75EF9002803D0FF300006000E8BE0F82148590007800F012828D1E869000425D4237B5B0822D04149086880071ED5281C28308DF78BFBF822505902229043F8225051201C99F783FF0821281C7EF7D7FE8DF7BEF90123364A1370364A1168281C8DF7A5F9281C8DF7E1FAC0E72F687B0132481E18F37F012B50D071
:FB766C00237B5B0809D1637B2E490091052B09D0DB002D48C218009204E0201C0C307AF7ADFF009000990B7963770023236002F051F801900099486840010BD4B068002805D003682360B3681C60B46011E0B46024600EE0F068002805D003682360F3681C60F46001E0F4602460211C281C90F7DFFA0123BB401549086818430860019802F030F8E8690006C00E0A2803D1381C74F7F8F909E0082807D1381C6DF7ABF803E0201C99F716FF64E7002002B0F0BDBCC80800641B0800BFC10800885008007C290800B09709006CCF05007429080070B582B00023019360490868202800D1B6E010285AD15E49086877F7B5FC051C5C4E301C77F7D8F900281122
:FB776700D0041CF822135801221343F8221350EB69C06907210B4088431843E061286877F7EEFB0CE02C1C311C281C28300622BDF7F5F8F820435902208343F8204351311C201C8DF73BF8002805D0F820035901200343F8200351201C8DF712FA01F0BCFF012321688B40414A11681943116001F0BBFF20686CF74FFFE369F820834310200343E361206801216DF7B3F8201C90F7EFF8201C8CF78CFEFF233248036059E0FF23013398424AD12F4877F77FF9041E50D077F7EBFDE369012000068343F820834310200343E361E36C5B005B08E364EC210B59000683430B51201C00217BF763FE201C00217BF7BAFE6B4601AA211C4C31201C283096F7BAFCBD
:82786200002806D0019B002B03D0201C7BF7B2FA03E0211C002078F794FAFF231348036015480368012B18D1E3691B0415D412480368002B03D1114803680F4803608CF756FF0AE0402802D18DF72EFF05E001235B02984201D18DF7BFFE012002B070BC08BC1847C046D45008008C060800E8500800B4C4080088C8080088500800809809001A
:FB790400A048002303608360704770B59E490B68180A9E4A402803D19D49D1609D4906E09D490143D160030219189C4BC9189C4D29609C4C9C4963685B0E2468E407E40F634009D0402807D17F2464020B68974D2B400125ED0406E0FD2424020B68934D2B400325AD040B600B682B430B6000238F4E336003040B21090459182143032631438C4E31600F30106070BD10B5041C7C480368002B05D1201C6FF716F8201C00F096F810BC08BC184710B5041C8248416A002902D1836A022B09D9032904D1836AFF203630834202D2201C6FF758FA60237A48195D405C80210143784A116070480368774A136043681720800603435360FFF78AFFA37B734A13A9
:FB79FF00600023734A1360082113206EF7C8F810BD00B500290ED1FFF7CAFF5B4A11686D4841435A4A1068000A0430BDF7E7FB6A4A106014E0022907D1012368490B604030407F76F720FB0AE0052908D1002363490B60FFF707FD002801D18DF7BBF908BC1847000000B5484A011C1368002B0DD09368002B0AD19389936060310A780023022A00D2531C0B706FF743F908BC184700003D49037D022B07D10868431E00D30B608868431E00D38B60704710B5037D092B0CD14A4C4B4A106877F77BFB20606068802188436060474AD078206210BC08BC184700B50821444800231A1C93F7A9FA00BDF0B5061C0F1C274C6368FF2B07D1012077F7A0F8606022
:FB7AFA00FF2801D1002041E03B4D0123EB742169281C6EF7E1FE2760A389A3602F4979431C480068000A0430BDF76BFB2C49086024232B7402236B743123AB74281C6030002303700123437000238370C3702B625D2002234355606877F72FFBA8730123EB73124F391C301C8DF782F9606877F724FB391C6EF725FD311C1C480622BCF704FF2169281C6EF7B6FE0120F0BD8498090094060800C8890E0040C07DC0447E000000D07DC0043E00008C800E008C990900B88A0E00FFFFC3FF94830E0098830E006C210800A8060800A4860E0040820E0000830E00F8800E00710200009C830E00F0FC0E0000820E0088980900549B0900B6FC00006451080000F0
:117BF500B5F8210B585B0702D4042180F7E4FD00BDDC
:FB7C6200F0B5051C13235B049F4F3B60082105206DF794FF9D4F3B689D4803403B603B68C00703433B608B4F3B6802273B43894F3B60974C984820620123974F3B60974FB868606278686065A8692430C17880220A43934F3A60934E8378B07B002B0ED1924D0021B0F7BDFCB169081C243042781302007B18430022B0F7CAFE09E00121B0F7AFFC8A4D8A4A13680120400603431360884805608848838A8848036000232360F0BD0523838183692633187801280FD10021CB4382490B6000234B607D490B68802003430B607A490B68800403430B60704700B5C369002B23D013235B04694A13605F4A13685D4A13605B4A1368594A1360554A1368644A1304
:C37D5D00607248724A11684160724A11684161714A11688160714A13680360704A1368704A136061486EF79DFE08BC1847000030B5052383816C4A116806220A40062A02D181692A3108E08B0702D481692C3103E04B0704D481692E310B8801330B8013235B0449490B605049CB69002B12D1524C2568C37B012B0CD12368802083432360022099F7D5FF80231D43A06899040843A060256030BC08BC184713235B043A4803604148C369002B02D1434803680360704700B5002901D1FFF724FF08BC18470000FE
:707F900000B52C22B049B148BCF7F4FCAF48B04B1860B0494160B049816100BD30B5041CBE342178FF233D334B43AC495918FF2208328B18FF211970A9493C30062201F08FFB00280CD1A74D23782B6002236B717F21C943A81D072201F08AFB00232B7130BD30B5041CBE342078FF233D3343430C
:FB8000009A495D18203083F771F8281C6EF71EFD86F740F89748036821788B4203D1FF2303600023437130BD00B5017D032901D0042902D1B2F7A3FE09E0037D062B02D100F008F803E0092B01D1B2F7C9FE08BC1847000070B582B0051C041C8034E37A002B08D0036DBE3319780820AFF708F90023A376E3726378032B28D0A87B99F72CFC4008218C431A1E04360C618C00291DD08E421BD36078012806D1688CBDF7D5F8062803D13E2002E0042803D008202B6DAF33187003236370281C6EF787FC2B6DBE3319780520AFF7DAF831E06068002808D00090002301936946A87B99F74EFD002363606378032B11D0FF201930285A864209D8A87B85F76E3F
:FB80FB00FF002804D1281CB3F7A8F9002802D05B49C8780CE06378002B07D1594BA87B185C032802D25549887801E054494878A874281CB3F784F802B070BDF0B581B0041C051C80350027AF81EF76FF230533C618F37D0133F375C37B012B13D17378002B19D1484803689B0715D5A07B99F7B7FB80084100A06981420DD099F74BFB4000686008E0012373703C480378A3740123DB07B361B7703B4800680090830739D539490B685B0602D40098430710D5A07B99F795FB400828846B78012B08D102236B70236D588900016884201CB2F7DCFEF37D012B05D17DF73BFE011C201CAFF7D2F825484379022B14D1236DBE330068197888420ED17DF72BFE2B
:FB81F6001F4B991D1A7988541879411C0720BDF736F81A4B18711E4B1F7000980621014006293AD1236DBE33187885F70BFF201CB0F760FCF078012804D8164980000B5C01330B54E37B0099201C002B02D1B2F7CAFE01E0B2F7F6FE201CB0F701FAAF7230E078E40500CC990900781508002980090037810900349D080009C10800C498090074150800E3C00800BC8B0E004015080086030800ECB00800B77583070AD5A87A0A490B78984205D2E37B002B02D00130A87206E02B7E002B00D02F76201CB2F77AFF01B0F0BC08BC1847C0461CCD0800F0B581B0051C0C1C08790002C978084350D00020ADF78AFDFF2801D109234AE0071CADF744FD00230395
:FB82F1008121790902E27811438186C186051C83F78DFA2E1CB03673885808E8806379252B0ED2384800900521BCF755FE6179C8084907490F01228A40009B195C11431954B07BFF233D334343304819180091281CAFF740FF2E488566B2F700F8307B0021B0F777F90523AB80381CAFF7C2FF00999E3101200870381C002100F035F8A279E179381C00F005F801E012232B7001B0F0BDF0B50C1C171CADF7F4FC061C201DB4F7D3FD051E1ED0B18D0B051B0D012040031843210408432B1CA907890F01D1186006E01870000A5870000A9870000AD8703A06120E2104090C281D91F74FFB281CB3F73EF9F0BD30B50C1CFF233D3343430548C51801F0AAF90B
:6C83EC00A2352C8001F0AEF930BDC046F44E0800349D080038B00800F0B5061E20D00768002F1DD0407CADF7B0FC051C707C182141430C484418786891F74FF999F7D0F8381C99F787F800233360217A01312172217A05480278A88D91F784F800232372F0BDC046F4B008007C1508006E
:8084640070B5051C0E1C041C8034A37F002B1ED0B0F753FC184A537C012B09D9E37E002B02D1A08BC10603D5311C281CB0F718FCCD23585D00280AD0FF230533E818837D002B04D04378002B01D1012383700B490B681B070FD56378022B0CD1FF201630285C002807D0A0898004800E0023002800D10123237670BDECCC0800E02C0800F1
:FB84EC00F0B5041C051C3A4806689835A8880712F306D90FE9707307D90F0307DA0F002F04D0344803685B0300D5111CFF231533E0184378002B03D1002901D0012343708A4216D0AB79002B15D1002F08D0D0231859C168C91BC16002D48368DB1983600122AA71201CB2F769FF201CAFF75CFF01E0002383713307DA0FA8884307D90F8A4234D11C4F397C0A0702D5B304990E2DD1184A13689B0303D5B3079B0F032B25D004214840A880251C5035AE87B304980E1CD020221149BB68181D01F0DAF8CC342078800712D50D490B68012080030340580B0BD02B68BE331878ADF7D5FBAF303D210170012028870023AB87F0BDA88B0E00E02C0800ECCC0896
:9585E7000080980E00BC8B0E0010B51F4C2068002805D08008800098F79FFF0023236010BDF0B5051CC668B469002C16D0B0F713FD002812D1154F3A1C211C1331E01CB0F7EBFB381C00F00AF80023AB60EB60A008800098F781FF0023B361F0BD00B582B0262369460B800190081C77F705FB02B000BD00B54368002B04D010220448002192F7E4FC00BDC046E49C0800659B090017200000B6
:9C869800F0B583B00291FF233D3343432248C618356D01F049F8371C90372C1CB0348E239A5B02998A1A1204120C638853433A6FD21851014909019101F03EF8F37B012B0ED16B8B5B000093288B4000019A101841014909181CBCF7A1FDA0800098E080281C83F790F8F37B002B0ED1E68870086883A188019899F77FF8E288011C101CBCF78CFD301A400828830298431E3B800123BB7203B0F0BD349D0800CF
:EC873C00F0B581B00090ADF718FB041C0027344E336BDB071FD5B4421DD0251C2C354223A97D9A5D914216D1291C1031301C3C30062200F0BFFF00280DD100F0E3FF051CBE36307800F032F8281C00F0E3FF3078AFF7CEFD03E0C03601370F2FD8DB0098B2F71FFF251C0123EB852C35201C81F707FA00980021AEF707FC1A4A13681021DB0603D5A971201CB3F793FD201CB1F751FFBE342178FF223D325143124BC9187F23FF2023300B5401B0F0BD10B5FF233D3343430C48C418201C80304178012907D1418C608CBCF723FD062803D13E2002E0042903D00820236DAF33187010BD2890080040150800349D0800E5
:BC883000F0B5061C046D2B4803689E4201D1B0F76BFC301CB0F7A7FA351C8035288901380ED32881288904236B70002808D1301C6EF7B5F8BE3421780520AEF709FD38E0687800281FD1B07B99F72FF84008B034A16898F7C5FF01239B0698420CD267883B1859014909381CBCF7B0FC7843A168081840014009A060A06800236B700223F374B06112E0022810D1AB7E002B0DD0E889298A431A1804000C074B984205D2EB7A002B02D1301CB2F7FFFB301C6EF718FAF0BD6C210800FF7F0000E3
:8C892800F0B5051C1F49FF230533C418E378980000230B544318581C00230370AF692B6D1889421C267C688C5043B04063681B1858014009381A01239B06984220D2B31D20789840A368D901EB7B002B00D15143E268824200D3101CBCF73CFC011C802800D980219F352970074803789E4202D2701C207404E000230434191C381C0BC4F0BDC046ECB008006F15080063
:E489C000F0B5061C071C9C373888102101401D490BD01D4BF518EB7898000A5C9301AA68D218AA604318597811E0174BF518EB7898004118487800280DD08C78097861438901BCF7FBFBA9680918A960211C8B01E868C018E8602B7C002B11D1E86800280ED0AB68D901F37B002B03D1336D1A8901325143BCF7E2FB802800D98020F870F0BDC046ECB0080004010000F0B50D1C114C20600B68DB0701D598F7D8FE0F4E0020706637680E483840306099F7E4F999F7E2F92868E0606868A0600220706699F7DAF999F7D8F999F7D6F937600020E060A060F0BDC04600820E001C800E00FFFFFFFDDF
:308AAC0000B54068084A13681979002909D1074A13681B0605D4002801D098F73BFD012000E0002000BDC046C04F0800E02C080046
:788AF80030B5041C80304378002B1BD10323E374252101230B55837E002B07D0236DD98B09014184A36903840123C372618CA06975F7F2F8238C984204D02084216DB03188800880FF230133E158E518A06998F763FE216DB2310A88011C101CBCF752FB011C201CB2F7A6FBA3692B60201CB0F7B4FA00236B7130BDB2
:FB8B8000F0B581B02F4806682F4805682F480378002B52D12E480368AB4203D12D480368B3424AD02C4C2D4FFE20284007D1002D03D02B480368DB0301D5002E1CD063681B071B0F022B02D0022099F7B9F925480078606324480078A06367F737FB00F0C7FD822141432068642250436430BCF705FB431C3B6018E063681B0702D0002099F79EF900206063A063184A13680093174A1088392109014143181CBCF7EEFA386014490098BCF7E9FA134908603868A06107490D6007490E6001B0F0BC08BC1847C04614CD0800B4C4080008C30800B8CA0800A49809000C000F00DC5E0800FC0A080009C308000AC30800C02D0800E80A080020CF01009C000F00
:758C7B0000381CFFF795F902B0B1F766FDFFF7B3F9B1F773FD30B5041C13490B685D78B1F7D3FA022C01D0042C16D1281C203082F71FFA042C07D10D4800231A1C191C92F7BBF9022102E0022C03D10821281CAEF77BF9281CADF7F8F805490B689879012801D1ADF75AF930BDC49C08000E200000C89C08009B
:FB8D0000F0B5041C00216EF7C2FB002803DA01234D4843716FE0061C251C7835687A00280DD1A07B98F7D9FD4008236DB833196898F775FD002804DC687A002805D0002E03DD201CB2F733FA55E0E37B012B03D1002801D101236B72A878802101433B4A1160082105206CF71AFF374A5379002B41D1B0F7D1F9364F381C052100F0D8FC03233B74201C00F037F8B0F782F9EB8A002B0AD1FF201630205C002805D1B0F7BBF93B7C082003433B740023AB74FF230533E6180023F375201CB2F7FEFA254A13780021002B00D101211170F078FF2806D16B7A022B03D1081CF070A3697360012805D8F1708B001B48C0187B7C8370201CAFF723FBF0BD30B58467
:698DFB007C17490B788374051C012200216EF7DFF9AC742C6DB223195B0239884200DB081C10494143E5208000BCF7EAF9FF210531695C884200D3081C32342178490702D5012800D901200349487430BDA42C0800A4860E00ECCC08006C150800ECB008007415080071020000FE
:FB8EEC0010B5002912D111498B79002B0BD010490B69834207D10F4C2368DB0603D54631012008700EE0B0F7C9FA0BE0022909D1011C48318A880B7E9B18013383814B889B1A4B8010BC08BC1847C046AC210800642C080008800E00F0B50D1C041C002D14D125488379002B0CD024480369A34208D1234A1368DB0604D5031C46330120187036E0201CB1F791F932E0FFF7B8FF022D2ED11B4A131C5421085B0004271C52373988084318644433251C5635A807800F01D12E6808E02D1AC0002968C1402026301A6E6886400E431E60A36B002B0CD1A06EC16B91603C30457908212D0200792843D06013680B431360A06E806A9064F0BC08BC1847AC210868
:598FE70000642C080008800E00808B0E00034B04480360044B044803607047C04620980900501508004C9809006415080010B5041C6DF773F8201C6DF7D6FC4A23002018536523195D0220AEF727F9A36EBC3318780021AFF703FB10BD71
:1490540000B5011C32310B78FB2213400B70AEF719FD00BDED
:FB91400003490B680020012B00D101207047C046901C0800002E02D00020E05504E0E35D002B01D0013BE3557CF703FD10B5A24C201C042100F0DCFA7F21C943A01D072200F0BEFAFF23236000239C4803709C4803709C4803709C4803709C4803709C4B9C4803600123DB029B48038080239B48037000239A4803709A4803709A480621BBF702FF14219948BBF7FEFE14219848BBF7FAFE10BD30B5041C96480368002B04D000230360282300201855924D00216962A96278F7DBFB90480368002B03D175F748FF002803D1012091F715FC04E076F77BFE2834042020700023884A137088480378012213430370FFF79FFF281C8A300621BBF7C8FE30BDF06C
:FB923B00B5061C051C081C08356C4C2368FF2B20D076490330062200F04DFA002819D16079022807D12068ACF788FDC38D012B10D1002711E001280FD1206875F725FFC1690906C90E0839062903D2FF210931475C02E0122333700EE0A11DE81D0722BBF773FB8021A01D072200F02CFA00232371AF710823F370F0BD30B50C1C5B4D0331281C0622BBF760FB637A564803701422211C0A315648BBF757FB1422211C1E315448BBF751FB002347480370434CFF232360281C0021ACF749FD002803D1281C0121ACF743FD002806D0C38D012B12D1BE30007802210CE0281C75F7FDFB002809D0C2691206D20E083A062A03D2006801212060617130BD0B792F
:FB93360035480370CB78304803707047F0B5052630480378002B50D12A4C2768FF2F4CD02079811D0720BBF78AFF05062D0E607902280CD1381CACF703FDC38D012B3CD1A31DEA560024012622490E7016E0012833D1381C75F79BFEC1690906C90E0B1C083B062B29D2A31DEA56FF230933C45C0123174803700A2900D10326144800211D4B1B579A420DDA0278013202700278B24212D301700F4A1378002B0DD092F7A1F90AE0154B1B5701709A4205DD06480378002B01D092F77AF90120F0BC08BC1847C498090002C108000FC10800840308008603080010C10800C05D00009C070800A007080099070800D8C20800ADC9080009C1080011C10800251A
:FB943100C1080024C9080054200800DCCC0800EEC00800E00A0800381CFBF7A9FC6BF796F9281CFBF7C2FC6BF7AFF981B000F003F874F7D0FB0000F0B5041C0D1C7CF7EDFC324E7379012B12D180213368095D8B420DD1A02210553179891988713079411C0720BBF7EEFE30710023284A1370271C261C6436317F9F2038569F377CF77CFC3870371CB37D0C37002B15D03368DB0508D41F4803691B010ED5301C90F757FC002809D00023B3610123FB720023BB727B72301C8EF77CFC33685806000F295C002904D0144B185CB072431E0DE010490B69DB000BD5104A11680A6853031B0F984204D193025B0F013BA3810CE0012333723B68FF2001308343F1
:28952C003B600D2307490B70301C74F7F9FBF0BDC498090086030800542008009EBB05001C2B0800E8C008005A
:54957C0083780D2B02D1032311480360704700B50F480368002B05D0002303600D21181C7AF77EFA00BD00B5094902060CD40868012807D102230B6018220D2100207AF74EFA03E0032801D1022000E0002000BDA0980900C6
:1895EC00044A1088012149020140480A012250407047C046E8C408005D
:FB96640000B500F06BF800231D490B7000F06EF800BD00B51B4B984202D1081C00F001F800BD00B5012100F006F800BD00B5002100F001F800BD30B50D1C114C12490B78012B15D10178032901D0082910D18378002B0DD100F042F8002D03D023780133237003E02178013900D3217000F03EF830BD00B5FFF7DAFF00BD014908787047B89B0900B8520800540008007847000000C09FE51CFF2FE1FC4005007847000000C09FE51CFF2FE1CC4805007847000000C09FE51CFF2FE1E05105007847000000C09FE51CFF2FE1741005007847000000C09FE51CFF2FE1304F05007847000000C09FE51CFF2FE17CD704007847000000C09FE51CFF2FE190D7048F
:FB975F00007847000000C09FE51CFF2FE160E801007847000000C09FE51CFF2FE1CC51050023000000E54C090024000000E14C090025000000E94C090035000000F54C090091000000439309009200000000000000000000000300000200000000000000000000000000000000000000000000000000000000955102005F72090065730900777509000000000000000000000000006754020000000000AD7A09000000000000000000117A09009179090000000000657A090000000000937A0900875102009F9504006D9904007F93040000000000ED8E090000000000A7960400000000000000000005990400C39304009F9504006D99040091A20400000012
:4A985A000000458F090000000000CFA2040093A30400BBA20400ABA30400C3930400010021000C0019000200000000180000FF0000008002000080020000F49709000018000803000000010000000F
:00000001FF
